{
  "contractName": "FrenList",
  "abi": [
    {
      "inputs": [],
      "payable": false,
      "stateMutability": "nonpayable",
      "type": "constructor"
    },
    {
      "anonymous": false,
      "inputs": [
        {
          "indexed": false,
          "internalType": "uint256",
          "name": "id",
          "type": "uint256"
        },
        {
          "indexed": false,
          "internalType": "bool",
          "name": "cancel",
          "type": "bool"
        }
      ],
      "name": "FrenCancel",
      "type": "event"
    },
    {
      "anonymous": false,
      "inputs": [
        {
          "indexed": false,
          "internalType": "uint256",
          "name": "id",
          "type": "uint256"
        },
        {
          "indexed": false,
          "internalType": "string",
          "name": "content",
          "type": "string"
        },
        {
          "indexed": false,
          "internalType": "bool",
          "name": "notify",
          "type": "bool"
        },
        {
          "indexed": false,
          "internalType": "bool",
          "name": "cancel",
          "type": "bool"
        }
      ],
      "name": "FrenCreated",
      "type": "event"
    },
    {
      "anonymous": false,
      "inputs": [
        {
          "indexed": false,
          "internalType": "uint256",
          "name": "id",
          "type": "uint256"
        },
        {
          "indexed": false,
          "internalType": "bool",
          "name": "notify",
          "type": "bool"
        }
      ],
      "name": "FrenNotify",
      "type": "event"
    },
    {
      "constant": true,
      "inputs": [],
      "name": "frenCount",
      "outputs": [
        {
          "internalType": "uint256",
          "name": "",
          "type": "uint256"
        }
      ],
      "payable": false,
      "stateMutability": "view",
      "type": "function"
    },
    {
      "constant": true,
      "inputs": [
        {
          "internalType": "uint256",
          "name": "",
          "type": "uint256"
        }
      ],
      "name": "frens",
      "outputs": [
        {
          "internalType": "uint256",
          "name": "id",
          "type": "uint256"
        },
        {
          "internalType": "string",
          "name": "content",
          "type": "string"
        },
        {
          "internalType": "bool",
          "name": "notify",
          "type": "bool"
        },
        {
          "internalType": "bool",
          "name": "cancel",
          "type": "bool"
        }
      ],
      "payable": false,
      "stateMutability": "view",
      "type": "function"
    },
    {
      "constant": false,
      "inputs": [
        {
          "internalType": "string",
          "name": "_content",
          "type": "string"
        }
      ],
      "name": "createFren",
      "outputs": [],
      "payable": false,
      "stateMutability": "nonpayable",
      "type": "function"
    },
    {
      "constant": false,
      "inputs": [
        {
          "internalType": "uint256",
          "name": "_id",
          "type": "uint256"
        }
      ],
      "name": "toggleNotify",
      "outputs": [],
      "payable": false,
      "stateMutability": "nonpayable",
      "type": "function"
    },
    {
      "constant": false,
      "inputs": [
        {
          "internalType": "uint256",
          "name": "_id",
          "type": "uint256"
        }
      ],
      "name": "toggleCancel",
      "outputs": [],
      "payable": false,
      "stateMutability": "nonpayable",
      "type": "function"
    }
  ],
  "bytecode": "0x60806040526000805534801561001457600080fd5b5061003c6040518060600160405280602a8152602001610bfc602a913961004160201b60201c565b610260565b6000808154809291906001019190505550604051806080016040528060005481526020018281526020016000151581526020016000151581525060016000805481526020019081526020016000206000820151816000015560208201518160010190805190602001906100b59291906101bb565b5060408201518160020160006101000a81548160ff02191690831515021790555060608201518160020160016101000a81548160ff0219169083151502179055509050507f72268297703df572daae630b58d19f7956fdd96cf05105b2dfaf0eaa3e0d8e216000548260008060405180858152602001806020018415151515815260200183151515158152602001828103825285818151815260200191508051906020019080838360005b8381101561017b578082015181840152602081019050610160565b50505050905090810190601f1680156101a85780820380516001836020036101000a031916815260200191505b509550505050505060405180910390a150565b828054600181600116156101000203166002900490600052602060002090601f016020900481019282601f106101fc57805160ff191683800117855561022a565b8280016001018555821561022a579182015b8281111561022957825182559160200191906001019061020e565b5b509050610237919061023b565b5090565b61025d91905b80821115610259576000816000905550600101610241565b5090565b90565b61098d8061026f6000396000f3fe608060405234801561001057600080fd5b50600436106100575760003560e01c8063776238591461005c5780639f11bb7c14610117578063b24767b714610145578063b750d64e14610209578063c569026e14610237575b600080fd5b6101156004803603602081101561007257600080fd5b810190808035906020019064010000000081111561008f57600080fd5b8201836020820111156100a157600080fd5b803590602001918460018302840111640100000000831117156100c357600080fd5b91908080601f016020809104026020016040519081016040528093929190818152602001838380828437600081840152601f19601f820116905080830192505050505050509192919290505050610255565b005b6101436004803603602081101561012d57600080fd5b81019080803590602001909291905050506103cf565b005b6101716004803603602081101561015b57600080fd5b81019080803590602001909291905050506105b7565b60405180858152602001806020018415151515815260200183151515158152602001828103825285818151815260200191508051906020019080838360005b838110156101cb5780820151818401526020810190506101b0565b50505050905090810190601f1680156101f85780820380516001836020036101000a031916815260200191505b509550505050505060405180910390f35b6102356004803603602081101561021f57600080fd5b8101908080359060200190929190505050610699565b005b61023f610881565b6040518082815260200191505060405180910390f35b6000808154809291906001019190505550604051806080016040528060005481526020018281526020016000151581526020016000151581525060016000805481526020019081526020016000206000820151816000015560208201518160010190805190602001906102c9929190610887565b5060408201518160020160006101000a81548160ff02191690831515021790555060608201518160020160016101000a81548160ff0219169083151502179055509050507f72268297703df572daae630b58d19f7956fdd96cf05105b2dfaf0eaa3e0d8e216000548260008060405180858152602001806020018415151515815260200183151515158152602001828103825285818151815260200191508051906020019080838360005b8381101561038f578082015181840152602081019050610374565b50505050905090810190601f1680156103bc5780820380516001836020036101000a031916815260200191505b509550505050505060405180910390a150565b6103d7610907565b6001600083815260200190815260200160002060405180608001604052908160008201548152602001600182018054600181600116156101000203166002900480601f0160208091040260200160405190810160405280929190818152602001828054600181600116156101000203166002900480156104985780601f1061046d57610100808354040283529160200191610498565b820191906000526020600020905b81548152906001019060200180831161047b57829003601f168201915b505050505081526020016002820160009054906101000a900460ff161515151581526020016002820160019054906101000a900460ff16151515158152505090508060600151158160600190151590811515815250508060016000848152602001908152602001600020600082015181600001556020820151816001019080519060200190610528929190610887565b5060408201518160020160006101000a81548160ff02191690831515021790555060608201518160020160016101000a81548160ff0219169083151502179055509050507fc22bb222de207913a1d5e28c2ab60e10a7cdad86b3796b1d83bddae529dbdc5982826060015160405180838152602001821515151581526020019250505060405180910390a15050565b6001602052806000526040600020600091509050806000015490806001018054600181600116156101000203166002900480601f0160208091040260200160405190810160405280929190818152602001828054600181600116156101000203166002900480156106695780601f1061063e57610100808354040283529160200191610669565b820191906000526020600020905b81548152906001019060200180831161064c57829003601f168201915b5050505050908060020160009054906101000a900460ff16908060020160019054906101000a900460ff16905084565b6106a1610907565b6001600083815260200190815260200160002060405180608001604052908160008201548152602001600182018054600181600116156101000203166002900480601f0160208091040260200160405190810160405280929190818152602001828054600181600116156101000203166002900480156107625780601f1061073757610100808354040283529160200191610762565b820191906000526020600020905b81548152906001019060200180831161074557829003601f168201915b505050505081526020016002820160009054906101000a900460ff161515151581526020016002820160019054906101000a900460ff161515151581525050905080604001511581604001901515908115158152505080600160008481526020019081526020016000206000820151816000015560208201518160010190805190602001906107f2929190610887565b5060408201518160020160006101000a81548160ff02191690831515021790555060608201518160020160016101000a81548160ff0219169083151502179055509050507ffd38e78516e1de249df28ca27b043f23009a27b35b12ac3df38ca69931deb5d482826040015160405180838152602001821515151581526020019250505060405180910390a15050565b60005481565b828054600181600116156101000203166002900490600052602060002090601f016020900481019282601f106108c857805160ff19168380011785556108f6565b828001600101855582156108f6579182015b828111156108f55782518255916020019190600101906108da565b5b5090506109039190610933565b5090565b604051806080016040528060008152602001606081526020016000151581526020016000151581525090565b61095591905b80821115610951576000816000905550600101610939565b5090565b9056fea265627a7a7231582050673fb79ffc603fbc151d473343ac9f7574f0e672802cd3f656eff514b982ad64736f6c63430005100032307830303030303030303030303030303030303030303030303030303030303030303030303064456144",
  "source": "// SPDX-License-Identifier: MIT\npragma solidity ^0.5.0;\n\ncontract FrenList {\n  uint public frenCount = 0;\n\n  struct Fren {\n    uint id;\n    string content;\n    bool notify;\n\tbool cancel;\n  }\n\n  mapping(uint => Fren) public frens;\n\n  event FrenCreated(\n    uint id,\n    string content,\n    bool notify,\n\tbool cancel\n  );\n\n  event FrenNotify(\n    uint id,\n    bool notify\n  );\n\n  event FrenCancel(\n    uint id,\n    bool cancel\n  );\n\n  constructor() public {\n    createFren(\"0x000000000000000000000000000000000000dEaD\");\n  }\n\n  function createFren(string memory _content) public {\n    frenCount ++;\n    frens[frenCount] = Fren(frenCount, _content, false, false);\n    emit FrenCreated(frenCount, _content, false, false);\n  }\n\n  function toggleNotify(uint _id) public {\n    Fren memory _fren = frens[_id];\n    _fren.notify = !_fren.notify;\n    frens[_id] = _fren;\n    emit FrenNotify(_id, _fren.notify);\n  }\n\n  function toggleCancel(uint _id) public {\n    Fren memory _fren = frens[_id];\n    _fren.cancel = !_fren.cancel;\n    frens[_id] = _fren;\n    emit FrenCancel(_id, _fren.cancel);\n  }\n\n}\n",
  "sourcePath": "C:/dapps/follow-my-frens/follow-my-frens-react/FrenList/contracts/FrenList.sol",
  "compiler": {
    "name": "solc",
    "version": "0.5.16+commit.9c3226ce.Emscripten.clang"
  },
  "schemaVersion": "3.2.5",
  "updatedAt": "2020-12-12T00:48:30.627Z",
  "devdoc": {
    "methods": {}
  },
  "userdoc": {
    "methods": {}
  }
}